{
  "_format": "hh-sol-artifact-1",
  "contractName": "SWRMPP",
  "sourceName": "contracts/STPOAP.sol",
  "abi": [
    {
      "inputs": [],
      "stateMutability": "nonpayable",
      "type": "constructor"
    },
    {
      "anonymous": false,
      "inputs": [
        {
          "indexed": true,
          "internalType": "address",
          "name": "owner",
          "type": "address"
        },
        {
          "indexed": true,
          "internalType": "address",
          "name": "approved",
          "type": "address"
        },
        {
          "indexed": true,
          "internalType": "uint256",
          "name": "tokenId",
          "type": "uint256"
        }
      ],
      "name": "Approval",
      "type": "event"
    },
    {
      "anonymous": false,
      "inputs": [
        {
          "indexed": true,
          "internalType": "address",
          "name": "owner",
          "type": "address"
        },
        {
          "indexed": true,
          "internalType": "address",
          "name": "operator",
          "type": "address"
        },
        {
          "indexed": false,
          "internalType": "bool",
          "name": "approved",
          "type": "bool"
        }
      ],
      "name": "ApprovalForAll",
      "type": "event"
    },
    {
      "anonymous": false,
      "inputs": [
        {
          "indexed": false,
          "internalType": "string",
          "name": "fun",
          "type": "string"
        },
        {
          "indexed": false,
          "internalType": "address",
          "name": "sender",
          "type": "address"
        },
        {
          "indexed": false,
          "internalType": "uint256",
          "name": "value",
          "type": "uint256"
        },
        {
          "indexed": false,
          "internalType": "bytes",
          "name": "data",
          "type": "bytes"
        }
      ],
      "name": "Log",
      "type": "event"
    },
    {
      "anonymous": false,
      "inputs": [
        {
          "indexed": true,
          "internalType": "address",
          "name": "previousOwner",
          "type": "address"
        },
        {
          "indexed": true,
          "internalType": "address",
          "name": "newOwner",
          "type": "address"
        }
      ],
      "name": "OwnershipTransferred",
      "type": "event"
    },
    {
      "anonymous": false,
      "inputs": [
        {
          "indexed": true,
          "internalType": "address",
          "name": "from",
          "type": "address"
        },
        {
          "indexed": true,
          "internalType": "address",
          "name": "to",
          "type": "address"
        },
        {
          "indexed": true,
          "internalType": "uint256",
          "name": "tokenId",
          "type": "uint256"
        }
      ],
      "name": "Transfer",
      "type": "event"
    },
    {
      "stateMutability": "payable",
      "type": "fallback"
    },
    {
      "inputs": [
        {
          "internalType": "address",
          "name": "to",
          "type": "address"
        },
        {
          "internalType": "uint256",
          "name": "tokenId",
          "type": "uint256"
        }
      ],
      "name": "approve",
      "outputs": [],
      "stateMutability": "nonpayable",
      "type": "function"
    },
    {
      "inputs": [
        {
          "internalType": "address",
          "name": "owner",
          "type": "address"
        }
      ],
      "name": "balanceOf",
      "outputs": [
        {
          "internalType": "uint256",
          "name": "",
          "type": "uint256"
        }
      ],
      "stateMutability": "view",
      "type": "function"
    },
    {
      "inputs": [],
      "name": "flipMintPaused",
      "outputs": [],
      "stateMutability": "nonpayable",
      "type": "function"
    },
    {
      "inputs": [
        {
          "internalType": "uint256",
          "name": "tokenId",
          "type": "uint256"
        }
      ],
      "name": "getApproved",
      "outputs": [
        {
          "internalType": "address",
          "name": "",
          "type": "address"
        }
      ],
      "stateMutability": "view",
      "type": "function"
    },
    {
      "inputs": [],
      "name": "getCurrentIdIndex",
      "outputs": [
        {
          "internalType": "uint256",
          "name": "",
          "type": "uint256"
        }
      ],
      "stateMutability": "view",
      "type": "function"
    },
    {
      "inputs": [],
      "name": "getMintPaused",
      "outputs": [
        {
          "internalType": "bool",
          "name": "",
          "type": "bool"
        }
      ],
      "stateMutability": "view",
      "type": "function"
    },
    {
      "inputs": [],
      "name": "getSnapshot",
      "outputs": [
        {
          "internalType": "address[]",
          "name": "",
          "type": "address[]"
        }
      ],
      "stateMutability": "view",
      "type": "function"
    },
    {
      "inputs": [
        {
          "internalType": "address",
          "name": "owner",
          "type": "address"
        },
        {
          "internalType": "address",
          "name": "operator",
          "type": "address"
        }
      ],
      "name": "isApprovedForAll",
      "outputs": [
        {
          "internalType": "bool",
          "name": "",
          "type": "bool"
        }
      ],
      "stateMutability": "view",
      "type": "function"
    },
    {
      "inputs": [],
      "name": "maxSupply",
      "outputs": [
        {
          "internalType": "uint256",
          "name": "",
          "type": "uint256"
        }
      ],
      "stateMutability": "view",
      "type": "function"
    },
    {
      "inputs": [
        {
          "internalType": "uint256",
          "name": "nTokens",
          "type": "uint256"
        }
      ],
      "name": "mint",
      "outputs": [],
      "stateMutability": "payable",
      "type": "function"
    },
    {
      "inputs": [
        {
          "internalType": "uint256",
          "name": "nTokens",
          "type": "uint256"
        }
      ],
      "name": "mintOwner",
      "outputs": [],
      "stateMutability": "payable",
      "type": "function"
    },
    {
      "inputs": [],
      "name": "name",
      "outputs": [
        {
          "internalType": "string",
          "name": "",
          "type": "string"
        }
      ],
      "stateMutability": "view",
      "type": "function"
    },
    {
      "inputs": [],
      "name": "owner",
      "outputs": [
        {
          "internalType": "address",
          "name": "",
          "type": "address"
        }
      ],
      "stateMutability": "view",
      "type": "function"
    },
    {
      "inputs": [
        {
          "internalType": "uint256",
          "name": "tokenId",
          "type": "uint256"
        }
      ],
      "name": "ownerOf",
      "outputs": [
        {
          "internalType": "address",
          "name": "",
          "type": "address"
        }
      ],
      "stateMutability": "view",
      "type": "function"
    },
    {
      "inputs": [],
      "name": "price",
      "outputs": [
        {
          "internalType": "uint256",
          "name": "",
          "type": "uint256"
        }
      ],
      "stateMutability": "view",
      "type": "function"
    },
    {
      "inputs": [],
      "name": "renounceOwnership",
      "outputs": [],
      "stateMutability": "nonpayable",
      "type": "function"
    },
    {
      "inputs": [
        {
          "internalType": "address",
          "name": "from",
          "type": "address"
        },
        {
          "internalType": "address",
          "name": "to",
          "type": "address"
        },
        {
          "internalType": "uint256",
          "name": "tokenId",
          "type": "uint256"
        }
      ],
      "name": "safeTransferFrom",
      "outputs": [],
      "stateMutability": "nonpayable",
      "type": "function"
    },
    {
      "inputs": [
        {
          "internalType": "address",
          "name": "from",
          "type": "address"
        },
        {
          "internalType": "address",
          "name": "to",
          "type": "address"
        },
        {
          "internalType": "uint256",
          "name": "tokenId",
          "type": "uint256"
        },
        {
          "internalType": "bytes",
          "name": "data",
          "type": "bytes"
        }
      ],
      "name": "safeTransferFrom",
      "outputs": [],
      "stateMutability": "nonpayable",
      "type": "function"
    },
    {
      "inputs": [
        {
          "internalType": "address",
          "name": "operator",
          "type": "address"
        },
        {
          "internalType": "bool",
          "name": "approved",
          "type": "bool"
        }
      ],
      "name": "setApprovalForAll",
      "outputs": [],
      "stateMutability": "nonpayable",
      "type": "function"
    },
    {
      "inputs": [
        {
          "internalType": "string",
          "name": "_URI",
          "type": "string"
        }
      ],
      "name": "setBaseURI",
      "outputs": [],
      "stateMutability": "nonpayable",
      "type": "function"
    },
    {
      "inputs": [
        {
          "internalType": "string",
          "name": "newExtension",
          "type": "string"
        }
      ],
      "name": "setLinkExtension",
      "outputs": [],
      "stateMutability": "nonpayable",
      "type": "function"
    },
    {
      "inputs": [
        {
          "internalType": "uint256",
          "name": "_newPrice",
          "type": "uint256"
        }
      ],
      "name": "setMintPrice",
      "outputs": [],
      "stateMutability": "nonpayable",
      "type": "function"
    },
    {
      "inputs": [
        {
          "internalType": "bytes4",
          "name": "interfaceId",
          "type": "bytes4"
        }
      ],
      "name": "supportsInterface",
      "outputs": [
        {
          "internalType": "bool",
          "name": "",
          "type": "bool"
        }
      ],
      "stateMutability": "view",
      "type": "function"
    },
    {
      "inputs": [],
      "name": "symbol",
      "outputs": [
        {
          "internalType": "string",
          "name": "",
          "type": "string"
        }
      ],
      "stateMutability": "view",
      "type": "function"
    },
    {
      "inputs": [
        {
          "internalType": "uint256",
          "name": "tokenId",
          "type": "uint256"
        }
      ],
      "name": "tokenURI",
      "outputs": [
        {
          "internalType": "string",
          "name": "",
          "type": "string"
        }
      ],
      "stateMutability": "view",
      "type": "function"
    },
    {
      "inputs": [
        {
          "internalType": "address",
          "name": "from",
          "type": "address"
        },
        {
          "internalType": "address",
          "name": "to",
          "type": "address"
        },
        {
          "internalType": "uint256",
          "name": "tokenId",
          "type": "uint256"
        }
      ],
      "name": "transferFrom",
      "outputs": [],
      "stateMutability": "nonpayable",
      "type": "function"
    },
    {
      "inputs": [
        {
          "internalType": "address",
          "name": "newOwner",
          "type": "address"
        }
      ],
      "name": "transferOwnership",
      "outputs": [],
      "stateMutability": "nonpayable",
      "type": "function"
    },
    {
      "inputs": [],
      "name": "withdraw",
      "outputs": [],
      "stateMutability": "payable",
      "type": "function"
    },
    {
      "inputs": [],
      "name": "withdraw_fallback",
      "outputs": [],
      "stateMutability": "payable",
      "type": "function"
    },
    {
      "stateMutability": "payable",
      "type": "receive"
    }
  ],
  "bytecode": "0x60806040526040518060400160405280600581526020017f2e6a736f6e000000000000000000000000000000000000000000000000000000815250600990816200004a9190620004d5565b506000600a556000600b55633b9aca00600c556001600d60006101000a81548160ff0219169083151502179055506040518060400160405280601581526020017f776520747275737420696e20636f6d6d756e6974790000000000000000000000815250600e9081620000be9190620004d5565b50348015620000cc57600080fd5b506040518060400160405280600681526020017f5357524d505000000000000000000000000000000000000000000000000000008152506040518060400160405280601381526020017f476f65726c69204f70656e53656120546573740000000000000000000000000081525081600090816200014a9190620004d5565b5080600190816200015c9190620004d5565b5050506200017f620001736200018d60201b60201c565b6200019560201b60201c565b6001600781905550620005bc565b600033905090565b6000600660009054906101000a900473ffffffffffffffffffffffffffffffffffffffff16905081600660006101000a81548173ffffffffffffffffffffffffffffffffffffffff021916908373ffffffffffffffffffffffffffffffffffffffff1602179055508173ffffffffffffffffffffffffffffffffffffffff168173ffffffffffffffffffffffffffffffffffffffff167f8be0079c531659141344cd1fd0a4f28419497f9722a3daafe3b4186f6b6457e060405160405180910390a35050565b600081519050919050565b7f4e487b7100000000000000000000000000000000000000000000000000000000600052604160045260246000fd5b7f4e487b7100000000000000000000000000000000000000000000000000000000600052602260045260246000fd5b60006002820490506001821680620002dd57607f821691505b602082108103620002f357620002f262000295565b5b50919050565b60008190508160005260206000209050919050565b60006020601f8301049050919050565b600082821b905092915050565b6000600883026200035d7fffffffffffffffffffffffffffffffffffffffffffffffffffffffffffffffff826200031e565b6200036986836200031e565b95508019841693508086168417925050509392505050565b6000819050919050565b6000819050919050565b6000620003b6620003b0620003aa8462000381565b6200038b565b62000381565b9050919050565b6000819050919050565b620003d28362000395565b620003ea620003e182620003bd565b8484546200032b565b825550505050565b600090565b62000401620003f2565b6200040e818484620003c7565b505050565b5b8181101562000436576200042a600082620003f7565b60018101905062000414565b5050565b601f82111562000485576200044f81620002f9565b6200045a846200030e565b810160208510156200046a578190505b6200048262000479856200030e565b83018262000413565b50505b505050565b600082821c905092915050565b6000620004aa600019846008026200048a565b1980831691505092915050565b6000620004c5838362000497565b9150826002028217905092915050565b620004e0826200025b565b67ffffffffffffffff811115620004fc57620004fb62000266565b5b620005088254620002c4565b620005158282856200043a565b600060209050601f8311600181146200054d576000841562000538578287015190505b620005448582620004b7565b865550620005b4565b601f1984166200055d86620002f9565b60005b82811015620005875784890151825560018201915060208501945060208101905062000560565b86831015620005a75784890151620005a3601f89168262000497565b8355505b6001600288020188555050505b505050505050565b613b9e80620005cc6000396000f3fe6080604052600436106101c65760003560e01c806370a08231116100f7578063a0712d6811610095578063d5abeb0111610064578063d5abeb011461063d578063e985e9c514610668578063f2fde38b146106a5578063f4a0a528146106ce57610206565b8063a0712d6814610592578063a22cb465146105ae578063b88d4fde146105d7578063c87b56dd1461060057610206565b80638da5cb5b116100d15780638da5cb5b146104e657806395d89b41146105115780639c54297c1461053c578063a035b1fe1461056757610206565b806370a082311461046757806370ce7059146104a4578063715018a6146104cf57610206565b806333f88d221161016457806347069a191161013e57806347069a19146103e057806355f804b3146103f7578063602e89d2146104205780636352211e1461042a57610206565b806333f88d22146103915780633ccfd60b146103ad57806342842e0e146103b757610206565b8063093e809c116101a0578063093e809c146102eb578063095ea7b31461031457806323b872dd1461033d578063258465dd1461036657610206565b806301ffc9a71461024657806306fdde0314610283578063081812fc146102ae57610206565b36610206577ff7f75251dee7d7fc22deac3247729ebe7c86541f35930bf10c2a4207479a3b6c33346040516101fc9291906123e4565b60405180910390a1005b7ff7f75251dee7d7fc22deac3247729ebe7c86541f35930bf10c2a4207479a3b6c333460003660405161023c94939291906124cc565b60405180910390a1005b34801561025257600080fd5b5061026d6004803603810190610268919061258b565b6106f7565b60405161027a91906125d3565b60405180910390f35b34801561028f57600080fd5b506102986107d9565b6040516102a5919061265c565b60405180910390f35b3480156102ba57600080fd5b506102d560048036038101906102d091906126aa565b61086b565b6040516102e291906126d7565b60405180910390f35b3480156102f757600080fd5b50610312600480360381019061030d9190612818565b6108b1565b005b34801561032057600080fd5b5061033b6004803603810190610336919061288d565b6108cc565b005b34801561034957600080fd5b50610364600480360381019061035f91906128cd565b6109e3565b005b34801561037257600080fd5b5061037b610a43565b60405161038891906125d3565b60405180910390f35b6103ab60048036038101906103a691906126aa565b610a5a565b005b6103b5610af4565b005b3480156103c357600080fd5b506103de60048036038101906103d991906128cd565b610bb1565b005b3480156103ec57600080fd5b506103f5610bd1565b005b34801561040357600080fd5b5061041e60048036038101906104199190612818565b610c05565b005b610428610c20565b005b34801561043657600080fd5b50610451600480360381019061044c91906126aa565b610c77565b60405161045e91906126d7565b60405180910390f35b34801561047357600080fd5b5061048e60048036038101906104899190612920565b610cfd565b60405161049b919061294d565b60405180910390f35b3480156104b057600080fd5b506104b9610db4565b6040516104c6919061294d565b60405180910390f35b3480156104db57600080fd5b506104e4610dbe565b005b3480156104f257600080fd5b506104fb610dd2565b60405161050891906126d7565b60405180910390f35b34801561051d57600080fd5b50610526610dfc565b604051610533919061265c565b60405180910390f35b34801561054857600080fd5b50610551610e8e565b60405161055e9190612a26565b60405180910390f35b34801561057357600080fd5b5061057c610f5d565b604051610589919061294d565b60405180910390f35b6105ac60048036038101906105a791906126aa565b610f67565b005b3480156105ba57600080fd5b506105d560048036038101906105d09190612a74565b6110ae565b005b3480156105e357600080fd5b506105fe60048036038101906105f99190612b55565b6110c4565b005b34801561060c57600080fd5b50610627600480360381019061062291906126aa565b611126565b604051610634919061265c565b60405180910390f35b34801561064957600080fd5b506106526111d0565b60405161065f919061294d565b60405180910390f35b34801561067457600080fd5b5061068f600480360381019061068a9190612bd8565b6111e7565b60405161069c91906125d3565b60405180910390f35b3480156106b157600080fd5b506106cc60048036038101906106c79190612920565b61127b565b005b3480156106da57600080fd5b506106f560048036038101906106f091906126aa565b6112fe565b005b60007f80ac58cd000000000000000000000000000000000000000000000000000000007bffffffffffffffffffffffffffffffffffffffffffffffffffffffff1916827bffffffffffffffffffffffffffffffffffffffffffffffffffffffff191614806107c257507f5b5e139f000000000000000000000000000000000000000000000000000000007bffffffffffffffffffffffffffffffffffffffffffffffffffffffff1916827bffffffffffffffffffffffffffffffffffffffffffffffffffffffff1916145b806107d257506107d182611310565b5b9050919050565b6060600080546107e890612c47565b80601f016020809104026020016040519081016040528092919081815260200182805461081490612c47565b80156108615780601f1061083657610100808354040283529160200191610861565b820191906000526020600020905b81548152906001019060200180831161084457829003601f168201915b5050505050905090565b60006108768261137a565b6004600083815260200190815260200160002060009054906101000a900473ffffffffffffffffffffffffffffffffffffffff169050919050565b6108b96113c5565b80600990816108c89190612e24565b5050565b60006108d782610c77565b90508073ffffffffffffffffffffffffffffffffffffffff168373ffffffffffffffffffffffffffffffffffffffff1603610947576040517f08c379a000000000000000000000000000000000000000000000000000000000815260040161093e90612f68565b60405180910390fd5b8073ffffffffffffffffffffffffffffffffffffffff16610966611443565b73ffffffffffffffffffffffffffffffffffffffff16148061099557506109948161098f611443565b6111e7565b5b6109d4576040517f08c379a00000000000000000000000000000000000000000000000000000000081526004016109cb90612ffa565b60405180910390fd5b6109de838361144b565b505050565b6109f46109ee611443565b82611504565b610a33576040517f08c379a0000000000000000000000000000000000000000000000000000000008152600401610a2a9061308c565b60405180910390fd5b610a3e838383611599565b505050565b6000600d60009054906101000a900460ff16905090565b610a626113c5565b80610a6b6111d0565b1015610aac576040517f08c379a0000000000000000000000000000000000000000000000000000000008152600401610aa39061311e565b60405180910390fd5b60005b81811015610af057610ac333600b54611892565b6001600b6000828254610ad6919061316d565b925050819055508080610ae8906131a1565b915050610aaf565b5050565b610afc6113c5565b600047905060003373ffffffffffffffffffffffffffffffffffffffff1682604051610b2790613217565b60006040518083038185875af1925050503d8060008114610b64576040519150601f19603f3d011682016040523d82523d6000602084013e610b69565b606091505b5050905080610bad576040517f08c379a0000000000000000000000000000000000000000000000000000000008152600401610ba490613278565b60405180910390fd5b5050565b610bcc838383604051806020016040528060008152506110c4565b505050565b610bd96113c5565b600d60009054906101000a900460ff1615600d60006101000a81548160ff021916908315150217905550565b610c0d6113c5565b8060089081610c1c9190612e24565b5050565b610c286113c5565b60004790503373ffffffffffffffffffffffffffffffffffffffff166108fc829081150290604051600060405180830381858888f19350505050158015610c73573d6000803e3d6000fd5b5050565b600080610c83836118b0565b9050600073ffffffffffffffffffffffffffffffffffffffff168173ffffffffffffffffffffffffffffffffffffffff1603610cf4576040517f08c379a0000000000000000000000000000000000000000000000000000000008152600401610ceb906132e4565b60405180910390fd5b80915050919050565b60008073ffffffffffffffffffffffffffffffffffffffff168273ffffffffffffffffffffffffffffffffffffffff1603610d6d576040517f08c379a0000000000000000000000000000000000000000000000000000000008152600401610d6490613376565b60405180910390fd5b600360008373ffffffffffffffffffffffffffffffffffffffff1673ffffffffffffffffffffffffffffffffffffffff168152602001908152602001600020549050919050565b6000600b54905090565b610dc66113c5565b610dd060006118ed565b565b6000600660009054906101000a900473ffffffffffffffffffffffffffffffffffffffff16905090565b606060018054610e0b90612c47565b80601f0160208091040260200160405190810160405280929190818152602001828054610e3790612c47565b8015610e845780601f10610e5957610100808354040283529160200191610e84565b820191906000526020600020905b815481529060010190602001808311610e6757829003601f168201915b5050505050905090565b60606000600b5467ffffffffffffffff811115610eae57610ead6126fc565b5b604051908082528060200260200182016040528015610edc5781602001602082028036833780820191505090505b50905060005b600b54811015610f5557610ef581610c77565b828281518110610f0857610f07613396565b5b602002602001019073ffffffffffffffffffffffffffffffffffffffff16908173ffffffffffffffffffffffffffffffffffffffff16815250508080610f4d906131a1565b915050610ee2565b508091505090565b6000600a54905090565b60001515600d60009054906101000a900460ff16151514610fbd576040517f08c379a0000000000000000000000000000000000000000000000000000000008152600401610fb490613411565b60405180910390fd5b610fc56119b3565b80600a54610fd39190613431565b3414611014576040517f08c379a000000000000000000000000000000000000000000000000000000000815260040161100b906134bf565b60405180910390fd5b8061101d6111d0565b101561105e576040517f08c379a00000000000000000000000000000000000000000000000000000000081526004016110559061311e565b60405180910390fd5b60005b818110156110a25761107533600b54611892565b6001600b6000828254611088919061316d565b92505081905550808061109a906131a1565b915050611061565b506110ab611a02565b50565b6110c06110b9611443565b8383611a0c565b5050565b6110d56110cf611443565b83611504565b611114576040517f08c379a000000000000000000000000000000000000000000000000000000000815260040161110b9061308c565b60405180910390fd5b61112084848484611b78565b50505050565b606061113182611bd4565b611170576040517f08c379a0000000000000000000000000000000000000000000000000000000008152600401611167906132e4565b60405180910390fd5b600061117a611c15565b9050600081511161119a57604051806020016040528060008152506111c8565b806111a484611ca7565b60096040516020016111b89392919061359e565b6040516020818303038152906040525b915050919050565b6000600b54600c546111e291906135cf565b905090565b6000600560008473ffffffffffffffffffffffffffffffffffffffff1673ffffffffffffffffffffffffffffffffffffffff16815260200190815260200160002060008373ffffffffffffffffffffffffffffffffffffffff1673ffffffffffffffffffffffffffffffffffffffff16815260200190815260200160002060009054906101000a900460ff16905092915050565b6112836113c5565b600073ffffffffffffffffffffffffffffffffffffffff168173ffffffffffffffffffffffffffffffffffffffff16036112f2576040517f08c379a00000000000000000000000000000000000000000000000000000000081526004016112e990613675565b60405180910390fd5b6112fb816118ed565b50565b6113066113c5565b80600a8190555050565b60007f01ffc9a7000000000000000000000000000000000000000000000000000000007bffffffffffffffffffffffffffffffffffffffffffffffffffffffff1916827bffffffffffffffffffffffffffffffffffffffffffffffffffffffff1916149050919050565b61138381611bd4565b6113c2576040517f08c379a00000000000000000000000000000000000000000000000000000000081526004016113b9906132e4565b60405180910390fd5b50565b6113cd611443565b73ffffffffffffffffffffffffffffffffffffffff166113eb610dd2565b73ffffffffffffffffffffffffffffffffffffffff1614611441576040517f08c379a0000000000000000000000000000000000000000000000000000000008152600401611438906136e1565b60405180910390fd5b565b600033905090565b816004600083815260200190815260200160002060006101000a81548173ffffffffffffffffffffffffffffffffffffffff021916908373ffffffffffffffffffffffffffffffffffffffff160217905550808273ffffffffffffffffffffffffffffffffffffffff166114be83610c77565b73ffffffffffffffffffffffffffffffffffffffff167f8c5be1e5ebec7d5bd14f71427d1e84f3dd0314c0f7b2291e5b200ac8c7c3b92560405160405180910390a45050565b60008061151083610c77565b90508073ffffffffffffffffffffffffffffffffffffffff168473ffffffffffffffffffffffffffffffffffffffff161480611552575061155181856111e7565b5b8061159057508373ffffffffffffffffffffffffffffffffffffffff166115788461086b565b73ffffffffffffffffffffffffffffffffffffffff16145b91505092915050565b8273ffffffffffffffffffffffffffffffffffffffff166115b982610c77565b73ffffffffffffffffffffffffffffffffffffffff161461160f576040517f08c379a000000000000000000000000000000000000000000000000000000000815260040161160690613773565b60405180910390fd5b600073ffffffffffffffffffffffffffffffffffffffff168273ffffffffffffffffffffffffffffffffffffffff160361167e576040517f08c379a000000000000000000000000000000000000000000000000000000000815260040161167590613805565b60405180910390fd5b61168b8383836001611d75565b8273ffffffffffffffffffffffffffffffffffffffff166116ab82610c77565b73ffffffffffffffffffffffffffffffffffffffff1614611701576040517f08c379a00000000000000000000000000000000000000000000000000000000081526004016116f890613773565b60405180910390fd5b6004600082815260200190815260200160002060006101000a81549073ffffffffffffffffffffffffffffffffffffffff02191690556001600360008573ffffffffffffffffffffffffffffffffffffffff1673ffffffffffffffffffffffffffffffffffffffff168152602001908152602001600020600082825403925050819055506001600360008473ffffffffffffffffffffffffffffffffffffffff1673ffffffffffffffffffffffffffffffffffffffff16815260200190815260200160002060008282540192505081905550816002600083815260200190815260200160002060006101000a81548173ffffffffffffffffffffffffffffffffffffffff021916908373ffffffffffffffffffffffffffffffffffffffff160217905550808273ffffffffffffffffffffffffffffffffffffffff168473ffffffffffffffffffffffffffffffffffffffff167fddf252ad1be2c89b69c2b068fc378daa952ba7f163c4a11628f55a4df523b3ef60405160405180910390a461188d8383836001611d7b565b505050565b6118ac828260405180602001604052806000815250611d81565b5050565b60006002600083815260200190815260200160002060009054906101000a900473ffffffffffffffffffffffffffffffffffffffff169050919050565b6000600660009054906101000a900473ffffffffffffffffffffffffffffffffffffffff16905081600660006101000a81548173ffffffffffffffffffffffffffffffffffffffff021916908373ffffffffffffffffffffffffffffffffffffffff1602179055508173ffffffffffffffffffffffffffffffffffffffff168173ffffffffffffffffffffffffffffffffffffffff167f8be0079c531659141344cd1fd0a4f28419497f9722a3daafe3b4186f6b6457e060405160405180910390a35050565b6002600754036119f8576040517f08c379a00000000000000000000000000000000000000000000000000000000081526004016119ef90613871565b60405180910390fd5b6002600781905550565b6001600781905550565b8173ffffffffffffffffffffffffffffffffffffffff168373ffffffffffffffffffffffffffffffffffffffff1603611a7a576040517f08c379a0000000000000000000000000000000000000000000000000000000008152600401611a71906138dd565b60405180910390fd5b80600560008573ffffffffffffffffffffffffffffffffffffffff1673ffffffffffffffffffffffffffffffffffffffff16815260200190815260200160002060008473ffffffffffffffffffffffffffffffffffffffff1673ffffffffffffffffffffffffffffffffffffffff16815260200190815260200160002060006101000a81548160ff0219169083151502179055508173ffffffffffffffffffffffffffffffffffffffff168373ffffffffffffffffffffffffffffffffffffffff167f17307eab39ab6107e8899845ad3d59bd9653f200f220920489ca2b5937696c3183604051611b6b91906125d3565b60405180910390a3505050565b611b83848484611599565b611b8f84848484611ddc565b611bce576040517f08c379a0000000000000000000000000000000000000000000000000000000008152600401611bc59061396f565b60405180910390fd5b50505050565b60008073ffffffffffffffffffffffffffffffffffffffff16611bf6836118b0565b73ffffffffffffffffffffffffffffffffffffffff1614159050919050565b606060088054611c2490612c47565b80601f0160208091040260200160405190810160405280929190818152602001828054611c5090612c47565b8015611c9d5780601f10611c7257610100808354040283529160200191611c9d565b820191906000526020600020905b815481529060010190602001808311611c8057829003601f168201915b5050505050905090565b606060006001611cb684611f63565b01905060008167ffffffffffffffff811115611cd557611cd46126fc565b5b6040519080825280601f01601f191660200182016040528015611d075781602001600182028036833780820191505090505b509050600082602001820190505b600115611d6a578080600190039150507f3031323334353637383961626364656600000000000000000000000000000000600a86061a8153600a8581611d5e57611d5d61398f565b5b04945060008503611d15575b819350505050919050565b50505050565b50505050565b611d8b83836120b6565b611d986000848484611ddc565b611dd7576040517f08c379a0000000000000000000000000000000000000000000000000000000008152600401611dce9061396f565b60405180910390fd5b505050565b6000611dfd8473ffffffffffffffffffffffffffffffffffffffff166122d3565b15611f56578373ffffffffffffffffffffffffffffffffffffffff1663150b7a02611e26611443565b8786866040518563ffffffff1660e01b8152600401611e489493929190613a02565b6020604051808303816000875af1925050508015611e8457506040513d601f19601f82011682018060405250810190611e819190613a63565b60015b611f06573d8060008114611eb4576040519150601f19603f3d011682016040523d82523d6000602084013e611eb9565b606091505b506000815103611efe576040517f08c379a0000000000000000000000000000000000000000000000000000000008152600401611ef59061396f565b60405180910390fd5b805181602001fd5b63150b7a0260e01b7bffffffffffffffffffffffffffffffffffffffffffffffffffffffff1916817bffffffffffffffffffffffffffffffffffffffffffffffffffffffff191614915050611f5b565b600190505b949350505050565b600080600090507a184f03e93ff9f4daa797ed6e38ed64bf6a1f0100000000000000008310611fc1577a184f03e93ff9f4daa797ed6e38ed64bf6a1f0100000000000000008381611fb757611fb661398f565b5b0492506040810190505b6d04ee2d6d415b85acef81000000008310611ffe576d04ee2d6d415b85acef81000000008381611ff457611ff361398f565b5b0492506020810190505b662386f26fc10000831061202d57662386f26fc1000083816120235761202261398f565b5b0492506010810190505b6305f5e1008310612056576305f5e100838161204c5761204b61398f565b5b0492506008810190505b612710831061207b5761271083816120715761207061398f565b5b0492506004810190505b6064831061209e57606483816120945761209361398f565b5b0492506002810190505b600a83106120ad576001810190505b80915050919050565b600073ffffffffffffffffffffffffffffffffffffffff168273ffffffffffffffffffffffffffffffffffffffff1603612125576040517f08c379a000000000000000000000000000000000000000000000000000000000815260040161211c90613adc565b60405180910390fd5b61212e81611bd4565b1561216e576040517f08c379a000000000000000000000000000000000000000000000000000000000815260040161216590613b48565b60405180910390fd5b61217c600083836001611d75565b61218581611bd4565b156121c5576040517f08c379a00000000000000000000000000000000000000000000000000000000081526004016121bc90613b48565b60405180910390fd5b6001600360008473ffffffffffffffffffffffffffffffffffffffff1673ffffffffffffffffffffffffffffffffffffffff16815260200190815260200160002060008282540192505081905550816002600083815260200190815260200160002060006101000a81548173ffffffffffffffffffffffffffffffffffffffff021916908373ffffffffffffffffffffffffffffffffffffffff160217905550808273ffffffffffffffffffffffffffffffffffffffff16600073ffffffffffffffffffffffffffffffffffffffff167fddf252ad1be2c89b69c2b068fc378daa952ba7f163c4a11628f55a4df523b3ef60405160405180910390a46122cf600083836001611d7b565b5050565b6000808273ffffffffffffffffffffffffffffffffffffffff163b119050919050565b600082825260208201905092915050565b7f7265636569766500000000000000000000000000000000000000000000000000600082015250565b600061233d6007836122f6565b915061234882612307565b602082019050919050565b600073ffffffffffffffffffffffffffffffffffffffff82169050919050565b600061237e82612353565b9050919050565b61238e81612373565b82525050565b6000819050919050565b6123a781612394565b82525050565b600082825260208201905092915050565b50565b60006123ce6000836123ad565b91506123d9826123be565b600082019050919050565b600060808201905081810360008301526123fd81612330565b905061240c6020830185612385565b612419604083018461239e565b818103606083015261242a816123c1565b90509392505050565b7f66616c6c6261636b000000000000000000000000000000000000000000000000600082015250565b60006124696008836122f6565b915061247482612433565b602082019050919050565b82818337600083830152505050565b6000601f19601f8301169050919050565b60006124ab83856123ad565b93506124b883858461247f565b6124c18361248e565b840190509392505050565b600060808201905081810360008301526124e58161245c565b90506124f46020830187612385565b612501604083018661239e565b818103606083015261251481848661249f565b905095945050505050565b6000604051905090565b600080fd5b600080fd5b60007fffffffff0000000000000000000000000000000000000000000000000000000082169050919050565b61256881612533565b811461257357600080fd5b50565b6000813590506125858161255f565b92915050565b6000602082840312156125a1576125a0612529565b5b60006125af84828501612576565b91505092915050565b60008115159050919050565b6125cd816125b8565b82525050565b60006020820190506125e860008301846125c4565b92915050565b600081519050919050565b60005b838110156126175780820151818401526020810190506125fc565b60008484015250505050565b600061262e826125ee565b61263881856122f6565b93506126488185602086016125f9565b6126518161248e565b840191505092915050565b600060208201905081810360008301526126768184612623565b905092915050565b61268781612394565b811461269257600080fd5b50565b6000813590506126a48161267e565b92915050565b6000602082840312156126c0576126bf612529565b5b60006126ce84828501612695565b91505092915050565b60006020820190506126ec6000830184612385565b92915050565b600080fd5b600080fd5b7f4e487b7100000000000000000000000000000000000000000000000000000000600052604160045260246000fd5b6127348261248e565b810181811067ffffffffffffffff82111715612753576127526126fc565b5b80604052505050565b600061276661251f565b9050612772828261272b565b919050565b600067ffffffffffffffff821115612792576127916126fc565b5b61279b8261248e565b9050602081019050919050565b60006127bb6127b684612777565b61275c565b9050828152602081018484840111156127d7576127d66126f7565b5b6127e284828561247f565b509392505050565b600082601f8301126127ff576127fe6126f2565b5b813561280f8482602086016127a8565b91505092915050565b60006020828403121561282e5761282d612529565b5b600082013567ffffffffffffffff81111561284c5761284b61252e565b5b612858848285016127ea565b91505092915050565b61286a81612373565b811461287557600080fd5b50565b60008135905061288781612861565b92915050565b600080604083850312156128a4576128a3612529565b5b60006128b285828601612878565b92505060206128c385828601612695565b9150509250929050565b6000806000606084860312156128e6576128e5612529565b5b60006128f486828701612878565b935050602061290586828701612878565b925050604061291686828701612695565b9150509250925092565b60006020828403121561293657612935612529565b5b600061294484828501612878565b91505092915050565b6000602082019050612962600083018461239e565b92915050565b600081519050919050565b600082825260208201905092915050565b6000819050602082019050919050565b61299d81612373565b82525050565b60006129af8383612994565b60208301905092915050565b6000602082019050919050565b60006129d382612968565b6129dd8185612973565b93506129e883612984565b8060005b83811015612a19578151612a0088826129a3565b9750612a0b836129bb565b9250506001810190506129ec565b5085935050505092915050565b60006020820190508181036000830152612a4081846129c8565b905092915050565b612a51816125b8565b8114612a5c57600080fd5b50565b600081359050612a6e81612a48565b92915050565b60008060408385031215612a8b57612a8a612529565b5b6000612a9985828601612878565b9250506020612aaa85828601612a5f565b9150509250929050565b600067ffffffffffffffff821115612acf57612ace6126fc565b5b612ad88261248e565b9050602081019050919050565b6000612af8612af384612ab4565b61275c565b905082815260208101848484011115612b1457612b136126f7565b5b612b1f84828561247f565b509392505050565b600082601f830112612b3c57612b3b6126f2565b5b8135612b4c848260208601612ae5565b91505092915050565b60008060008060808587031215612b6f57612b6e612529565b5b6000612b7d87828801612878565b9450506020612b8e87828801612878565b9350506040612b9f87828801612695565b925050606085013567ffffffffffffffff811115612bc057612bbf61252e565b5b612bcc87828801612b27565b91505092959194509250565b60008060408385031215612bef57612bee612529565b5b6000612bfd85828601612878565b9250506020612c0e85828601612878565b9150509250929050565b7f4e487b7100000000000000000000000000000000000000000000000000000000600052602260045260246000fd5b60006002820490506001821680612c5f57607f821691505b602082108103612c7257612c71612c18565b5b50919050565b60008190508160005260206000209050919050565b60006020601f8301049050919050565b600082821b905092915050565b600060088302612cda7fffffffffffffffffffffffffffffffffffffffffffffffffffffffffffffffff82612c9d565b612ce48683612c9d565b95508019841693508086168417925050509392505050565b6000819050919050565b6000612d21612d1c612d1784612394565b612cfc565b612394565b9050919050565b6000819050919050565b612d3b83612d06565b612d4f612d4782612d28565b848454612caa565b825550505050565b600090565b612d64612d57565b612d6f818484612d32565b505050565b5b81811015612d9357612d88600082612d5c565b600181019050612d75565b5050565b601f821115612dd857612da981612c78565b612db284612c8d565b81016020851015612dc1578190505b612dd5612dcd85612c8d565b830182612d74565b50505b505050565b600082821c905092915050565b6000612dfb60001984600802612ddd565b1980831691505092915050565b6000612e148383612dea565b9150826002028217905092915050565b612e2d826125ee565b67ffffffffffffffff811115612e4657612e456126fc565b5b612e508254612c47565b612e5b828285612d97565b600060209050601f831160018114612e8e5760008415612e7c578287015190505b612e868582612e08565b865550612eee565b601f198416612e9c86612c78565b60005b82811015612ec457848901518255600182019150602085019450602081019050612e9f565b86831015612ee15784890151612edd601f891682612dea565b8355505b6001600288020188555050505b505050505050565b7f4552433732313a20617070726f76616c20746f2063757272656e74206f776e6560008201527f7200000000000000000000000000000000000000000000000000000000000000602082015250565b6000612f526021836122f6565b9150612f5d82612ef6565b604082019050919050565b60006020820190508181036000830152612f8181612f45565b9050919050565b7f4552433732313a20617070726f76652063616c6c6572206973206e6f7420746f60008201527f6b656e206f776e6572206f7220617070726f76656420666f7220616c6c000000602082015250565b6000612fe4603d836122f6565b9150612fef82612f88565b604082019050919050565b6000602082019050818103600083015261301381612fd7565b9050919050565b7f4552433732313a2063616c6c6572206973206e6f7420746f6b656e206f776e6560008201527f72206f7220617070726f76656400000000000000000000000000000000000000602082015250565b6000613076602d836122f6565b91506130818261301a565b604082019050919050565b600060208201905081810360008301526130a581613069565b9050919050565b7f6e6f7420656e6f75676820746f6b656e73206c6566742e20506c65617365207460008201527f7279206120736d616c6c657220616d6f756e7400000000000000000000000000602082015250565b60006131086033836122f6565b9150613113826130ac565b604082019050919050565b60006020820190508181036000830152613137816130fb565b9050919050565b7f4e487b7100000000000000000000000000000000000000000000000000000000600052601160045260246000fd5b600061317882612394565b915061318383612394565b925082820190508082111561319b5761319a61313e565b5b92915050565b60006131ac82612394565b91507fffffffffffffffffffffffffffffffffffffffffffffffffffffffffffffffff82036131de576131dd61313e565b5b600182019050919050565b600081905092915050565b60006132016000836131e9565b915061320c826123be565b600082019050919050565b6000613222826131f4565b9150819050919050565b7f7472616e73616374696f6e206661696c65640000000000000000000000000000600082015250565b60006132626012836122f6565b915061326d8261322c565b602082019050919050565b6000602082019050818103600083015261329181613255565b9050919050565b7f4552433732313a20696e76616c696420746f6b656e2049440000000000000000600082015250565b60006132ce6018836122f6565b91506132d982613298565b602082019050919050565b600060208201905081810360008301526132fd816132c1565b9050919050565b7f4552433732313a2061646472657373207a65726f206973206e6f74206120766160008201527f6c6964206f776e65720000000000000000000000000000000000000000000000602082015250565b60006133606029836122f6565b915061336b82613304565b604082019050919050565b6000602082019050818103600083015261338f81613353565b9050919050565b7f4e487b7100000000000000000000000000000000000000000000000000000000600052603260045260246000fd5b7f4d696e74696e672069732063757272656e746c79207061757365640000000000600082015250565b60006133fb601b836122f6565b9150613406826133c5565b602082019050919050565b6000602082019050818103600083015261342a816133ee565b9050919050565b600061343c82612394565b915061344783612394565b925082820261345581612394565b9150828204841483151761346c5761346b61313e565b5b5092915050565b7f6e6f7420656e6f756768204554482073656e7400000000000000000000000000600082015250565b60006134a96013836122f6565b91506134b482613473565b602082019050919050565b600060208201905081810360008301526134d88161349c565b9050919050565b600081905092915050565b60006134f5826125ee565b6134ff81856134df565b935061350f8185602086016125f9565b80840191505092915050565b6000815461352881612c47565b61353281866134df565b9450600182166000811461354d576001811461356257613595565b60ff1983168652811515820286019350613595565b61356b85612c78565b60005b8381101561358d5781548189015260018201915060208101905061356e565b838801955050505b50505092915050565b60006135aa82866134ea565b91506135b682856134ea565b91506135c2828461351b565b9150819050949350505050565b60006135da82612394565b91506135e583612394565b92508282039050818111156135fd576135fc61313e565b5b92915050565b7f4f776e61626c653a206e6577206f776e657220697320746865207a65726f206160008201527f6464726573730000000000000000000000000000000000000000000000000000602082015250565b600061365f6026836122f6565b915061366a82613603565b604082019050919050565b6000602082019050818103600083015261368e81613652565b9050919050565b7f4f776e61626c653a2063616c6c6572206973206e6f7420746865206f776e6572600082015250565b60006136cb6020836122f6565b91506136d682613695565b602082019050919050565b600060208201905081810360008301526136fa816136be565b9050919050565b7f4552433732313a207472616e736665722066726f6d20696e636f72726563742060008201527f6f776e6572000000000000000000000000000000000000000000000000000000602082015250565b600061375d6025836122f6565b915061376882613701565b604082019050919050565b6000602082019050818103600083015261378c81613750565b9050919050565b7f4552433732313a207472616e7366657220746f20746865207a65726f2061646460008201527f7265737300000000000000000000000000000000000000000000000000000000602082015250565b60006137ef6024836122f6565b91506137fa82613793565b604082019050919050565b6000602082019050818103600083015261381e816137e2565b9050919050565b7f5265656e7472616e637947756172643a207265656e7472616e742063616c6c00600082015250565b600061385b601f836122f6565b915061386682613825565b602082019050919050565b6000602082019050818103600083015261388a8161384e565b9050919050565b7f4552433732313a20617070726f766520746f2063616c6c657200000000000000600082015250565b60006138c76019836122f6565b91506138d282613891565b602082019050919050565b600060208201905081810360008301526138f6816138ba565b9050919050565b7f4552433732313a207472616e7366657220746f206e6f6e20455243373231526560008201527f63656976657220696d706c656d656e7465720000000000000000000000000000602082015250565b60006139596032836122f6565b9150613964826138fd565b604082019050919050565b600060208201905081810360008301526139888161394c565b9050919050565b7f4e487b7100000000000000000000000000000000000000000000000000000000600052601260045260246000fd5b600081519050919050565b60006139d4826139be565b6139de81856123ad565b93506139ee8185602086016125f9565b6139f78161248e565b840191505092915050565b6000608082019050613a176000830187612385565b613a246020830186612385565b613a31604083018561239e565b8181036060830152613a4381846139c9565b905095945050505050565b600081519050613a5d8161255f565b92915050565b600060208284031215613a7957613a78612529565b5b6000613a8784828501613a4e565b91505092915050565b7f4552433732313a206d696e7420746f20746865207a65726f2061646472657373600082015250565b6000613ac66020836122f6565b9150613ad182613a90565b602082019050919050565b60006020820190508181036000830152613af581613ab9565b9050919050565b7f4552433732313a20746f6b656e20616c7265616479206d696e74656400000000600082015250565b6000613b32601c836122f6565b9150613b3d82613afc565b602082019050919050565b60006020820190508181036000830152613b6181613b25565b905091905056fea2646970667358221220dd30dbac443214e5433c247a788dc40dfb110a1c41b4043ea6443c35b6d56d9864736f6c63430008120033",
  "linkReferences": {},
  "deployedLinkReferences": {}
}